{
  "_format": "hh-sol-artifact-1",
  "contractName": "ScholarshipCreditSystem",
  "sourceName": "contracts/ScholarshipCreditSystem.sol",
  "abi": [
    {
      "anonymous": false,
      "inputs": [
        {
          "indexed": true,
          "internalType": "address",
          "name": "student",
          "type": "address"
        },
        {
          "indexed": false,
          "internalType": "uint256",
          "name": "amount",
          "type": "uint256"
        }
      ],
      "name": "CreditsAwarded",
      "type": "event"
    },
    {
      "anonymous": false,
      "inputs": [
        {
          "indexed": true,
          "internalType": "address",
          "name": "student",
          "type": "address"
        },
        {
          "indexed": false,
          "internalType": "enum ScholarshipCreditSystem.ExpenseType",
          "name": "purpose",
          "type": "uint8"
        },
        {
          "indexed": false,
          "internalType": "uint256",
          "name": "amount",
          "type": "uint256"
        }
      ],
      "name": "CreditsUsed",
      "type": "event"
    },
    {
      "inputs": [
        {
          "internalType": "uint256",
          "name": "subject1Grade",
          "type": "uint256"
        },
        {
          "internalType": "uint256",
          "name": "subject2Grade",
          "type": "uint256"
        },
        {
          "internalType": "uint256",
          "name": "subject3Grade",
          "type": "uint256"
        }
      ],
      "name": "awardCredits",
      "outputs": [],
      "stateMutability": "nonpayable",
      "type": "function"
    },
    {
      "inputs": [
        {
          "internalType": "address",
          "name": "",
          "type": "address"
        }
      ],
      "name": "balances",
      "outputs": [
        {
          "internalType": "uint256",
          "name": "",
          "type": "uint256"
        }
      ],
      "stateMutability": "view",
      "type": "function"
    },
    {
      "inputs": [],
      "name": "checkBalance",
      "outputs": [
        {
          "internalType": "uint256",
          "name": "",
          "type": "uint256"
        }
      ],
      "stateMutability": "view",
      "type": "function"
    },
    {
      "inputs": [
        {
          "internalType": "address",
          "name": "",
          "type": "address"
        }
      ],
      "name": "hasCredits",
      "outputs": [
        {
          "internalType": "bool",
          "name": "",
          "type": "bool"
        }
      ],
      "stateMutability": "view",
      "type": "function"
    },
    {
      "inputs": [
        {
          "internalType": "enum ScholarshipCreditSystem.ExpenseType",
          "name": "purpose",
          "type": "uint8"
        },
        {
          "internalType": "uint256",
          "name": "amount",
          "type": "uint256"
        }
      ],
      "name": "useCredits",
      "outputs": [],
      "stateMutability": "nonpayable",
      "type": "function"
    }
  ],
  "bytecode": "0x608060405234801561001057600080fd5b50610c43806100206000396000f3fe608060405234801561001057600080fd5b50600436106100575760003560e01c806327e235e31461005c578063816688f31461008c57806392d7ebf0146100bc5780639801f7c0146100d8578063c71daccb146100f4575b600080fd5b610076600480360381019061007191906106bc565b610112565b6040516100839190610702565b60405180910390f35b6100a660048036038101906100a191906106bc565b61012a565b6040516100b39190610738565b60405180910390f35b6100d660048036038101906100d191906107a4565b61014a565b005b6100f260048036038101906100ed91906107e4565b610351565b005b6100fc6104f3565b6040516101099190610702565b60405180910390f35b60006020528060005260406000206000915090505481565b60016020528060005260406000206000915054906101000a900460ff1681565b600160003373ffffffffffffffffffffffffffffffffffffffff1673ffffffffffffffffffffffffffffffffffffffff16815260200190815260200160002060009054906101000a900460ff166101d6576040517f08c379a00000000000000000000000000000000000000000000000000000000081526004016101cd90610894565b60405180910390fd5b806000803373ffffffffffffffffffffffffffffffffffffffff1673ffffffffffffffffffffffffffffffffffffffff168152602001908152602001600020541015610257576040517f08c379a000000000000000000000000000000000000000000000000000000000815260040161024e90610926565b60405180910390fd5b600061026283610539565b9050808210156102a7576040517f08c379a000000000000000000000000000000000000000000000000000000000815260040161029e906109b8565b60405180910390fd5b816000803373ffffffffffffffffffffffffffffffffffffffff1673ffffffffffffffffffffffffffffffffffffffff16815260200190815260200160002060008282546102f59190610a07565b925050819055503373ffffffffffffffffffffffffffffffffffffffff167f9c3a7413e7bf19bcdbd262186a0be86cfafcd9982b13449570599670551e4c558484604051610344929190610ab2565b60405180910390a2505050565b60648311158015610363575060648211155b8015610370575060648111155b6103af576040517f08c379a00000000000000000000000000000000000000000000000000000000081526004016103a690610b4d565b60405180910390fd5b60006103ba8461061a565b816103c59190610b6d565b90506103d08361061a565b816103db9190610b6d565b90506103e68261061a565b816103f19190610b6d565b9050806000803373ffffffffffffffffffffffffffffffffffffffff1673ffffffffffffffffffffffffffffffffffffffff16815260200190815260200160002060008282546104419190610b6d565b9250508190555060018060003373ffffffffffffffffffffffffffffffffffffffff1673ffffffffffffffffffffffffffffffffffffffff16815260200190815260200160002060006101000a81548160ff0219169083151502179055503373ffffffffffffffffffffffffffffffffffffffff167f1d28265d63fbaf2db2c11bc010eed3a869af81eeb2dd9a7e6067190c0b4297ca826040516104e59190610702565b60405180910390a250505050565b60008060003373ffffffffffffffffffffffffffffffffffffffff1673ffffffffffffffffffffffffffffffffffffffff16815260200190815260200160002054905090565b600080600281111561054e5761054d610a3b565b5b82600281111561056157610560610a3b565b5b03610570576101f49050610615565b6001600281111561058457610583610a3b565b5b82600281111561059757610596610a3b565b5b036105a55760c89050610615565b6002808111156105b8576105b7610a3b565b5b8260028111156105cb576105ca610a3b565b5b036105da5761012c9050610615565b6040517f08c379a000000000000000000000000000000000000000000000000000000000815260040161060c90610bed565b60405180910390fd5b919050565b6000605a821061062d5760c89050610654565b6050821061063e5760649050610654565b6046821061064f5760509050610654565b600090505b919050565b600080fd5b600073ffffffffffffffffffffffffffffffffffffffff82169050919050565b60006106898261065e565b9050919050565b6106998161067e565b81146106a457600080fd5b50565b6000813590506106b681610690565b92915050565b6000602082840312156106d2576106d1610659565b5b60006106e0848285016106a7565b91505092915050565b6000819050919050565b6106fc816106e9565b82525050565b600060208201905061071760008301846106f3565b92915050565b60008115159050919050565b6107328161071d565b82525050565b600060208201905061074d6000830184610729565b92915050565b6003811061076057600080fd5b50565b60008135905061077281610753565b92915050565b610781816106e9565b811461078c57600080fd5b50565b60008135905061079e81610778565b92915050565b600080604083850312156107bb576107ba610659565b5b60006107c985828601610763565b92505060206107da8582860161078f565b9150509250929050565b6000806000606084860312156107fd576107fc610659565b5b600061080b8682870161078f565b935050602061081c8682870161078f565b925050604061082d8682870161078f565b9150509250925092565b600082825260208201905092915050565b7f4e6f206372656469747320617661696c61626c6520666f72207573652e000000600082015250565b600061087e601d83610837565b915061088982610848565b602082019050919050565b600060208201905081810360008301526108ad81610871565b9050919050565b7f496e73756666696369656e742062616c616e636520746f20636f6d706c65746560008201527f2074686973207472616e73616374696f6e2e0000000000000000000000000000602082015250565b6000610910603283610837565b915061091b826108b4565b604082019050919050565b6000602082019050818103600083015261093f81610903565b9050919050565b7f496e73756666696369656e74206372656469747320666f72207468652073656c60008201527f656374656420707572706f73652e000000000000000000000000000000000000602082015250565b60006109a2602e83610837565b91506109ad82610946565b604082019050919050565b600060208201905081810360008301526109d181610995565b9050919050565b7f4e487b7100000000000000000000000000000000000000000000000000000000600052601160045260246000fd5b6000610a12826106e9565b9150610a1d836106e9565b9250828203905081811115610a3557610a346109d8565b5b92915050565b7f4e487b7100000000000000000000000000000000000000000000000000000000600052602160045260246000fd5b60038110610a7b57610a7a610a3b565b5b50565b6000819050610a8c82610a6a565b919050565b6000610a9c82610a7e565b9050919050565b610aac81610a91565b82525050565b6000604082019050610ac76000830185610aa3565b610ad460208301846106f3565b9392505050565b7f477261646573206d757374206265206265747765656e203020616e642031303060008201527f2e00000000000000000000000000000000000000000000000000000000000000602082015250565b6000610b37602183610837565b9150610b4282610adb565b604082019050919050565b60006020820190508181036000830152610b6681610b2a565b9050919050565b6000610b78826106e9565b9150610b83836106e9565b9250828201905080821115610b9b57610b9a6109d8565b5b92915050565b7f496e76616c696420707572706f736520666f7220637265646974207573652e00600082015250565b6000610bd7601f83610837565b9150610be282610ba1565b602082019050919050565b60006020820190508181036000830152610c0681610bca565b905091905056fea26469706673582212203e8c239548322a4f01ddccaa15a7a743c504e887b48288dd14aefbe254581e3864736f6c63430008130033",
  "linkReferences": {},
  "deployedLinkReferences": {}
}